:020000040800F2
:10000000000400200D0100086D0100086D010008CA
:100010006D0100086D0100086D010008000000007E
:100020000000000000000000000000006D0100085A
:100030006D010008000000006D0100086D0100085E
:100040006D0100086D0100086D0100086D010008D8
:100050006D0100086D0100086D0100086D010008C8
:100060006D0100086D0100086D0100086D010008B8
:100070006D0100086D0100086D0100086D010008A8
:100080006D0100086D0100086D0100086D01000898
:100090006D0100086D0100086D0100086D01000888
:1000A0006D0100086D0100086D0100086D01000878
:1000B0006D0100086D010008000000006D010008DE
:1000C0006D01000800000000000000006D01000844
:1000D000000000006D0100086D0100080000000034
:1000E0006D0100086D0100086D01000800000000AE
:1000F0000000000000000000000000000000000000
:1001000000000000000000005FF808F180B582B038
:1001100000AF114B7B60114B3B6007E03B681A1D41
:100120003A607A68111D796012681A603B680C4A5F
:100130009342F3D30B480C494FF000028842B8BFFA
:1001400040F8042BFADB00F015F800F0CFFB00BFFD
:100150000837BD4680BD00BFC01400080000002065
:1001600000000020000000200000002080B400AF4C
:10017000FEE700BF80B500AF154A154B1B6843F082
:10018000010313601249124B5A68124B13404B6023
:100190000F4A0F4B1B6823F0847323F480331360E2
:1001A0000B4A0B4B1B6823F480231360084A084B4F
:1001B0005B6823F4FE035360054B4FF41F029A6003
:1001C00000F00CF8044B4FF000629A6000BF80BD55
:1001D000001002400000FFF800ED00E080B500AF25
:1001E00000F002F800BF80BD80B483B000AF0023F0
:1001F0007B6000233B603A4A394B1B6843F48033F1
:100200001360374B1B6803F400333B607B6801339A
:100210007B603B68002B03D17B68B3F5A06FF0D106
:100220002F4B1B6803F40033002B02D001233B60EB
:1002300001E000233B603B68012B4BD1294A294B4D
:100240001B6843F010031360264A264B1B6823F0FB
:1002500003031360234A234B1B6843F0020313601C
:100260001F4A1F4B5B6853601D4A1D4B5B68536000
:100270001B4A1B4B5B6843F480635360184A184B5E
:100280005B6823F47C135360154A154B5B6843F499
:10029000E8135360124A124B1B6843F080731360DB
:1002A00000BF0F4B1B6803F00073002BF9D00C4A02
:1002B0000B4B5B6823F003035360094A084B5B68F0
:1002C00043F00203536000BF054B5B6803F00C036F
:1002D000082BF9D100BF0C37BD4680BC704700BF6A
:1002E000001002400020024080B489B000AF786066
:1002F00039600023FB6100233B610023BB610023C5
:10030000FB6000237B610023BB603B68DB7803F06C
:100310000F03FB613B68DB7803F01003002B05D073
:100320003B689B781A46FB691343FB613B681B885B
:10033000DBB2002B44D07B681B687B610023BB6170
:1003400038E00122BB6902FA03F3FB603B681B88BB
:100350001A46FB6813403B613A69FB689A4226D112
:10036000BB699B00FB600F22FB6802FA03F3BB60D2
:10037000BB68DB437A6913407B61FA69FB6802FA68
:1003800003F37A6913437B613B68DB78282B05D143
:100390000122BB699A407B685A6108E03B68DB78C0
:1003A000482B04D10122BB699A407B681A61BB6962
:1003B0000133BB61BB69072BC3D97B687A691A60BB
:1003C0003B681B88FF2B46D97B685B687B610023F9
:1003D000BB613AE0BB690833012202FA03F3FB6018
:1003E0003B681B881A46FB6813403B613A69FB680F
:1003F0009A4227D1BB699B00FB600F22FB6802FA7F
:1004000003F3BB60BB68DB437A6913407B61FA6925
:10041000FB6802FA03F37A6913437B613B68DB787C
:10042000282B05D1BB69083301229A407B685A61A9
:100430003B68DB78482B05D1BB69083301229A4021
:100440007B681A61BB690133BB61BB69072BC1D9EA
:100450007B687A695A6000BF2437BD4680BC70470C
:1004600080B485B000AF78600B467B800023FB73BF
:100470007B689A687B881340002B02D00123FB73B2
:1004800001E00023FB73FB7B18461437BD4680BC9C
:10049000704700BF80B483B000AF78600B467B80AC
:1004A0007A887B681A6100BF0C37BD4680BC7047F4
:1004B00080B483B000AF78600B467B807A887B681D
:1004C0005A6100BF0C37BD4680BC704780B483B012
:1004D00000AF78607B6841F27C5202FB03F37B60E3
:1004E00002E07B68013B7B607B68002BF9D100BF99
:1004F0000C37BD4680BC704790B583B000AF7860C4
:10050000786800F03DFD4FF000020B4B00F09EFDBF
:1005100003460C461846214600F0AAFF03467B60BE
:1005200002E07B68013B7B607B68002BF9D100BF58
:100530000C37BD4690BD00BF0000164080B582B0AC
:1005400000AF0121082000F0E1F94623BB80102311
:10055000FB710323BB713B1D19460748FFF7C4FE1F
:1005600004210548FFF796FF40210348FFF792FF5B
:1005700000BF0837BD4680BD000C014080B586B085
:1005800000AF012140F2052000F0C0F9F023BB824A
:100590004823FB750323BB7507F1140319461E4856
:1005A000FFF7A2FE0123BB820023FB750323BB756B
:1005B00007F1140319461848FFF796FE00233B6025
:1005C00000233B7100237B714FF46023BB60002349
:1005D000FB6001233B743B461946104800F0B4F918
:1005E00001210E4800F002FA0C4800F01BFA00BF8F
:1005F0000A4800F027FA0346002BF9D1074800F01B
:1006000039FA00BF054800F045FA0346002BF9D13E
:1006100000BF1837BD4680BD0008014000240140DE
:1006200080B582B000AF0346FB71F979072302223F
:100630000D4800F063FA01210B4800F043FA00BFB7
:100640000221094800F030FB0346012BF8D10021BC
:10065000054800F037FA044800F01AFB0346184634
:100660000837BD4680BD00BF0024014080B500AF03
:1006700040210348FFF7F4FE0346184680BD00BF43
:100680000008014080B500AF80210348FFF7E8FE75
:100690000346184680BD00BF0008014080B500AF8A
:1006A00010210348FFF7DCFE0346184680BD00BF5B
:1006B0000008014080B500AF20210348FFF7D0FEBD
:1006C0000346184680BD00BF0008014080B582B0D7
:1006D00000AF0346FB71FB79002B07D0012B00D044
:1006E00009E004210648FFF7D5FE04E00421044890
:1006F000FFF7DEFE00BF00BF0837BD4680BD00BF6C
:10070000000C014080B582B000AF0346FB71FB795D
:10071000002B07D0012B00D009E040210648FFF74D
:10072000C7FE04E040210448FFF7B4FE00BF00BF4D
:100730000837BD4680BD00BF000C014080B582B0C7
:1007400000AF0346FB80FB88642B01D96423FB8048
:10075000FB88C3F16E039BB21A46920013441A46FB
:1007600091001A460B4613449B00FB800221094866
:10077000FFF790FEFB881846FFF7BEFE02210548F2
:10078000FFF796FEFB881846FFF7B6FE00BF083756
:10079000BD4680BD000C014080B582B000AF002096
:1007A000FFF73EFF03463C4A82FB03121211DB17A0
:1007B000D31A3B60FFF75AFF0346002B13D10020EA
:1007C000FFF784FF0120FFF79DFF04E03B689BB229
:1007D0001846FFF7B3FFFFF749FF0346002BF5D09C
:1007E0000020FFF78FFFFFF74DFF0346002B13D1CB
:1007F0000120FFF76BFF0120FFF784FF04E03B6857
:100800009BB21846FFF79AFFFFF73CFF0346002B09
:10081000F5D00020FFF776FFFFF740FF0346002BDF
:1008200018D10023FB800020FFF750FF0120FFF7C5
:1008300069FF07E03B689BB21846FFF77FFFFB8824
:100840000133FB80FB8841F287329342F2D90020CA
:10085000FFF758FFFFF72EFF0346002B18D10023A8
:10086000BB800120FFF732FF0120FFF74BFF07E0BD
:100870003B689BB21846FFF761FFBB880133BB8022
:10088000BB8841F287329342F2D90020FFF73AFF4A
:1008900000BF0837BD4680BD6766666680B483B01A
:1008A00000AF01237B6000237B6002E07B680133A3
:1008B0007B607B68052BF9DD00BF0C37BD4680BC33
:1008C000704700BF80B483B000AF0A237B60002371
:1008D0007B6002E07B6801337B607B68632BF9DD22
:1008E00000BF0C37BD4680BC704700BF80B500AF6D
:1008F000FFF724FEFFF742FEFFF74EFFFFF7CEFFA4
:10090000FFF7E0FF6420FFF7E1FDF5E780B483B077
:1009100000AF78600B46FB70FB78002B06D00949CE
:10092000084B9A697B6813438B6106E00549054BC8
:100930009A697B68DB4313408B6100BF0C37BD466F
:1009400080BC70470010024080B485B000AF786072
:1009500039600023FB600023FB727B685B68FB60EF
:10096000FB6823F4702323F48073FB603B681A68F0
:100970003B681B791B021343FA681343FB607B68D7
:10098000FA685A607B689B68FB60FA68164B1340F4
:10099000FB603B68DA683B689B681A433B685B799D
:1009A0005B001343FA681343FB607B68FA689A6044
:1009B0007B68DB6AFB60FB6823F47003FB603B68C9
:1009C0001B7C013BDAB2FB7A1343FB72FB7A1B05FB
:1009D000FA681343FB607B68FA68DA6200BF143779
:1009E000BD4680BC704700BFFDF7F1FF80B483B007
:1009F00000AF78600B46FB70FB78002B06D07B685D
:100A00009B6843F001027B689A6005E07B689B6805
:100A100023F001027B689A6000BF0C37BD4680BCA2
:100A2000704700BF80B483B000AF78607B689B687C
:100A300043F008027B689A6000BF0C37BD4680BC5B
:100A4000704700BF80B485B000AF78600023FB73AF
:100A50007B689B6803F00803002B02D00123FB7323
:100A600001E00023FB73FB7B18461437BD4680BCB6
:100A7000704700BF80B483B000AF78607B689B682C
:100A800043F004027B689A6000BF0C37BD4680BC0F
:100A9000704700BF80B485B000AF78600023FB735F
:100AA0007B689B6803F00403002B02D00123FB73D7
:100AB00001E00023FB73FB7B18461437BD4680BC66
:100AC000704700BF80B483B000AF78600B46FB7006
:100AD000FB78002B06D07B689B6843F4A0027B6800
:100AE0009A6005E07B689B6823F4A0027B689A60AB
:100AF00000BF0C37BD4680BC704700BF80B485B0D6
:100B000000AF7860084611461A460346FB700B4654
:100B1000BB7013467B700023FB600023BB60FB7837
:100B2000092B23D97B68DB68FB60FB78A3F10A0201
:100B300013465B001344072202FA03F3BB60BB6851
:100B4000DB43FA681340FB607978FB78A3F10A0273
:100B500013465B00134401FA03F3BB60FA68BB68F9
:100B60001343FB607B68FA68DA601EE07B681B69F0
:100B7000FB60FA7813465B001344072202FA03F382
:100B8000BB60BB68DB43FA681340FB607978FA7896
:100B900013465B00134401FA03F3BB60FA68BB68B9
:100BA0001343FB607B68FA681A61BB78062B21D877
:100BB0007B685B6BFB60BB785A1E13469B0013443B
:100BC0001F2202FA03F3BB60BB68DB43FA681340E1
:100BD000FB60F978BB785A1E13469B00134401FA58
:100BE00003F3BB60FA68BB681343FB607B68FA6879
:100BF0005A6347E0BB780C2B21D87B681B6BFB60EA
:100C0000BB78DA1F13469B0013441F2202FA03F33A
:100C1000BB60BB68DB43FA681340FB60F978BB78C4
:100C2000DA1F13469B00134401FA03F3BB60FA6812
:100C3000BB681343FB607B68FA681A6322E07B6839
:100C4000DB6AFB60BB78A3F10D0213469B001344E3
:100C50001F2202FA03F3BB60BB68DB43FA68134050
:100C6000FB60F978BB78A3F10D0213469B00134497
:100C700001FA03F3BB60FA68BB681343FB607B684F
:100C8000FA68DA6200BF1437BD4680BC704700BF07
:100C900080B483B000AF78607B68DB6C9BB2184691
:100CA0000C37BD4680BC704780B485B000AF78601B
:100CB0000B46FB700023FB737B681A68FB781340BC
:100CC000002B02D00123FB7301E00023FB73FB7BAD
:100CD00018461437BD4680BC704700BF81F0004104
:100CE00002E000BF83F0004330B54FEA41044FEA11
:100CF000430594EA050F08BF90EA020F1FBF54EAAC
:100D0000000C55EA020C7FEA645C7FEA655C00F047
:100D1000E2804FEA5454D4EB5555B8BF6D420CDD18
:100D20002C4480EA020281EA030382EA000083EA9B
:100D3000010180EA020281EA0303362D88BF30BD3B
:100D400011F0004F4FEA01314FF4801C4CEA113191
:100D500002D0404261EB410113F0004F4FEA0333F0
:100D60004CEA133302D0524263EB430394EA050F7B
:100D700000F0A780A4F10104D5F1200E0DDB02FAEA
:100D80000EFC22FA05F2801841F1000103FA0EF27E
:100D9000801843FA05F359410EE0A5F120050EF144
:100DA000200E012A03FA0EFC28BF4CF0020C43FA75
:100DB00005F3C01851EBE37101F0004507D54FF082
:100DC000000EDCF1000C7EEB00006EEB0101B1F5D2
:100DD000801F1BD3B1F5001F0CD349085FEA300018
:100DE0004FEA3C0C04F101044FEA445212F5800F23
:100DF00080F09A80BCF1004F08BF5FEA500C50F1C0
:100E0000000041EB045141EA050130BD5FEA4C0CA2
:100E1000404141EB010111F4801FA4F10104E9D12B
:100E200091F0000F04BF01460020B1FA81F308BF22
:100E30002033A3F10B03B3F120020CDA0C3208DDEE
:100E400002F1140CC2F10C0201FA0CF021FA02F1C9
:100E50000CE002F11402D8BFC2F1200C01FA02F139
:100E600020FA0CFCDCBF41EA0C019040E41AA2BF5E
:100E700001EB0451294330BD6FEA04041F3C1CDA26
:100E80000C340EDC04F11404C4F1200220FA04F046
:100E900001FA02F340EA030021FA04F345EA0301F0
:100EA00030BDC4F10C04C4F1200220FA02F001FAB2
:100EB00004F340EA0300294630BD21FA04F0294634
:100EC00030BD94F0000F83F4801306BF81F48011CD
:100ED0000134013D4EE77FEA645C18BF7FEA655C40
:100EE00029D094EA050F08BF90EA020F05D054EA12
:100EF000000C04BF1946104630BD91EA030F1EBF17
:100F00000021002030BD5FEA545C05D1400049411A
:100F100028BF41F0004130BD14F580043CBF01F50D
:100F2000801130BD01F0004545F0FE4141F47001F3
:100F30004FF0000030BD7FEA645C1ABF19461046CE
:100F40007FEA655C1CBF0B46024650EA013406BFCF
:100F500052EA033591EA030F41F4002130BD00BF8E
:100F600090F0000F04BF0021704730B54FF480644B
:100F700004F132044FF000054FF0000150E700BFCC
:100F800090F0000F04BF0021704730B54FF480642B
:100F900004F1320410F0004548BF40424FF0000118
:100FA0003EE700BF42004FEAE2014FEA31014FEA5B
:100FB00002701FBF12F07F4393F07F4F81F06051AA
:100FC000704792F0000F14BF93F07F4F704730B519
:100FD0004FF4607401F0004521F0004120E700BFAC
:100FE00050EA010208BF704730B54FF000050AE033
:100FF00050EA010208BF704730B511F0004502D534
:10100000404261EB41014FF4806404F132045FEA35
:10101000915C3FF4DCAE4FF003025FEADC0C18BFDA
:1010200003325FEADC0C18BF033202EBDC02C2F1D0
:10103000200300FA03FC20FA02F001FA03FE40EA62
:101040000E0021FA02F11444C1E600BF70B54FF062
:10105000FF0C4CF4E06C1CEA11541DBF1CEA135544
:1010600094EA0C0F95EA0C0F00F0DEF82C4481EAAC
:10107000030621EA4C5123EA4C5350EA013518BFCC
:1010800052EA033541F4801143F4801338D0A0FBB9
:1010900002CE4FF00005E1FB02E506F00042E0FB66
:1010A00003E54FF00006E1FB03569CF0000F18BF6C
:1010B0004EF0010EA4F1FF04B6F5007F64F5407414
:1010C00004D25FEA4E0E6D4146EB060642EAC621A7
:1010D00041EA55514FEAC52040EA5E504FEACE2E14
:1010E000B4F1FD0C88BFBCF5E06F1ED8BEF1004F17
:1010F00008BF5FEA500E50F1000041EB045170BD93
:1011000006F0004646EA010140EA020081EA0301D6
:10111000B4EB5C04C2BFD4EB0C0541EA045170BDD2
:1011200041F480114FF0000E013C00F3AB8014F14C
:10113000360FDEBF002001F0004170BDC4F1000495
:10114000203C35DA0C341BDC04F11404C4F1200516
:1011500000FA05F320FA04F001FA05F240EA020071
:1011600001F0004221F0004110EBD37021FA04F6A7
:1011700042EB06015EEA430E08BF20EAD37070BD61
:10118000C4F10C04C4F1200500FA04F320FA05F0C0
:1011900001FA04F240EA020001F0004110EBD370C2
:1011A00041F100015EEA430E08BF20EAD37070BD32
:1011B000C4F1200500FA05F24EEA020E20FA04F30B
:1011C00001FA05F243EA020321FA04F001F00041BA
:1011D00021FA04F220EA020000EBD3705EEA430E2B
:1011E00008BF20EAD37070BD94F0000F0FD101F05A
:1011F0000046400041EB010111F4801F08BF013C93
:10120000F7D041EA060195F0000F18BF704703F0D0
:101210000046520043EB030313F4801F08BF013D57
:10122000F7D043EA0603704794EA0C0F0CEA135513
:1012300018BF95EA0C0F0CD050EA410618BF52EACD
:101240004306D1D181EA030101F000414FF00000D3
:1012500070BD50EA410606BF1046194652EA4306E1
:1012600019D094EA0C0F02D150EA013613D195EA55
:101270000C0F05D152EA03361CBF104619460AD19D
:1012800081EA030101F0004141F0FE4141F47001A7
:101290004FF0000070BD41F0FE4141F4780170BD97
:1012A00070B54FF0FF0C4CF4E06C1CEA11541DBFFC
:1012B0001CEA135594EA0C0F95EA0C0F00F0A7F8FE
:1012C000A4EB050481EA030E52EA03354FEA01312B
:1012D00000F088804FEA03334FF0805545EA13133E
:1012E00043EA12634FEA022245EA111545EA106506
:1012F0004FEA00260EF000419D4208BF964244F19D
:10130000FD0404F5407402D25B084FEA3202B61ABB
:1013100065EB03055B084FEA32024FF480104FF48F
:10132000002CB6EB020E75EB030E22BFB61A754603
:1013300040EA0C005B084FEA3202B6EB020E75EB96
:10134000030E22BFB61A754640EA5C005B084FEAFE
:101350003202B6EB020E75EB030E22BFB61A7546CB
:1013600040EA9C005B084FEA3202B6EB020E75EBD6
:10137000030E22BFB61A754640EADC0055EA060E97
:1013800018D04FEA051545EA16754FEA06164FEADA
:10139000C30343EA52734FEAC2025FEA1C1CC0D186
:1013A00011F4801F0BD141EA00014FF000004FF013
:1013B000004CB6E711F4801F04BF01430020B4F1D4
:1013C000FD0C88BFBCF5E06F3FF6AFAEB5EB030C8C
:1013D00004BFB6EB020C5FEA500C50F1000041EB89
:1013E000045170BD0EF0004E4EEA113114EB5C0456
:1013F000C2BFD4EB0C0541EA045170BD41F4801129
:101400004FF0000E013C90E645EA060E8DE60CEA30
:10141000135594EA0C0F08BF95EA0C0F3FF43BAF4D
:1014200094EA0C0F0AD150EA01347FF434AF95EA04
:101430000C0F7FF425AF104619462CE795EA0C0FE8
:1014400006D152EA03353FF4FDAE1046194622E7B5
:1014500050EA410618BF52EA43067FF4C5AE50EA8F
:1014600041047FF40DAF52EA43057FF4EBAE12E77F
:101470004FEA410212F5001215D211D56FF47873BC
:10148000B3EB625212D94FEAC12343F0004343EA5F
:10149000505311F0004F23FA02F018BF404270473A
:1014A0004FF00000704750EA013005D111F00040C4
:1014B00008BF6FF0004070474FF00000704700BF5A
:0400000508000000EF
:00000001FF
